:020000040800F2
:1000000000002720D5370008292A00082D2A0008DB
:10001000312A0008352A0008392A00082538000846
:10002000000000000000000000000000912704080C
:100030003D2A000800000000312704087922040846
:10004000253800082538000825380008253800081C
:10005000253800082538000825380008253800080C
:1000600025380008253800082538000825380008FC
:1000700025380008253800082538000825380008EC
:1000800025380008412A00082538000825380008CE
:1000900025380008253800082538000825380008CC
:1000A00025380008253800082538000825380008BC
:1000B0000000000025380008253800082538000811
:1000C000253800082538000825380008253800089C
:1000D000253800082538000825380008253800088C
:1000E000253800082538000825380008253800087C
:1000F00025380008492A0008253800082538000856
:10010000253800082538000825380008253800085B
:10011000253800082538000825380008253800084B
:10012000253800082538000825380008253800083B
:10013000253800082538000825380008253800082B
:10014000253800082538000825380008253800081B
:10015000253800082538000825380008253800080B
:1001600025380008253800082538000825380008FB
:1001700025380008253800082538000825380008EB
:1001800025380008253800082538000825380008DB
:1001900025380008253800082538000825380008CB
:1001A00025380008253800082538000825380008BB
:1001B0002538000800000000253800082538000810
:1001C0002538000800000000253800082538000800
:1001D000253800082538000825380008253800088B
:1001E000253800082538000825380008253800087B
:1001F0000000000000000000253800082538000835
:10020000253800082538000825380008253800085A
:100210002538000825380008552A00082538000828
:10022000253800082538000825380008253800083A
:10023000253800082538000825380008253800082A
:10024000253800082538000825380008253800081A
:10025000612A00086D2A000825380008792A00085C
:0C02600025380008253800082538000863
:1002700010B5054C237833B9044B13B10448AFF3E0
:1002800000800123237010BD40BA0B200000000045
:10029000683F040808B5034B1BB103490348AFF39B
:1002A000008008BD0000000044BA0B20683F04082D
:1002B00010F8012B11F8013B012A28BF9A42F7D010
:1002C000D01A7047034613F8012B002AFBD1181AE5
:1002D0000138704753B94AB9002908BF00281CBF2C
:1002E0004FF0FF314FF0FF3000F082B9ADF1080C54
:1002F0006DE904CE00F006F8DDF804E0DDE9022344
:1003000004B070472DE9F04F099E0D4604460F4694
:10031000002B46D18A4294465ED9B2FA82F343B1A9
:1003200002FA03FCC3F120029F409C4020FA02F233
:1003300017434FEA1C4E1FFA8CF5220CB7FBFEF157
:100340000EFB117701FB05F042EA0742904208D903
:100350001CEB020201F1FF3702D2904200F234811D
:100360003946121AA4B2B2FBFEF00EFB102200FBBB
:1003700005F544EA0244A54208D91CEB040400F147
:10038000FF3202D2A54200F21981104640EA014034
:10039000641B00211EB1DC400023C6E90043BDE818
:1003A000F08F8B4208D9002E00F0FC800021C6E9B6
:1003B00000050846BDE8F08FB3FA83F100294CD15F
:1003C000AB42C0F0F280824240F2EF800846002E3D
:1003D000E5D0C6E90047E2E702B9FFDEB2FA82F3F0
:1003E000002B40F09F808A1A4FEA1C4E1FFA8CF7B0
:1003F0000121B2FBFEF50EFB1520220C42EA004261
:1004000007FB05F090420FD91CEB020205F1FF3803
:100410002CBF4FF001094FF00009904203D9B9F108
:10042000000F00F0CE804546121AA4B2B2FBFEF0D7
:100430000EFB102200FB07F744EA0244A74208D94A
:100440001CEB040400F1FF3202D2A74200F2B38099
:100450001046E41B40EA05409CE7C1F120048B40B4
:1004600005FA01FC22FA04F7E5408A401F4320FA0E
:1004700004F388404FEA174843EA0C031FFA87FC4D
:100480004FEA1349B5FBF8FE08FB1E5549EA05453E
:100490000EFB0CF9A9450ED97D190EF1FF3A2CBFC0
:1004A0004FF0010B4FF0000BA94503D9BBF1000F32
:1004B00000F08D80D646A5EB09051FFA83F9B5FB40
:1004C000F8F308FB135503FB0CFC49EA0545AC4562
:1004D00006D97D1903F1FF3801D2AC457ED84346D9
:1004E00043EA0E43A5EB0C05A3FB02984545CE4617
:1004F000C44602D306D1484504D2013BB9EB020EF3
:1005000068EB070C002E6FD0B0EB0E0265EB0C050C
:10051000CA4005FA04F4CD40184614430021C6E948
:1005200000453CE702FA03FCC3F1200299409C40DD
:10053000D5404FEA1C4E20FA02F21FFA8CF7B5FBA9
:10054000FEF00A430EFB1055110C41EA054100FB79
:1005500007F58D420ED91CEB010100F1FF382CBFCD
:100560004FF001094FF000098D4202D9B9F1000F97
:1005700031D04046491B92B2B1FBFEF50EFB15117E
:1005800042EA014205FB07F1914207D91CEB020246
:1005900005F1FF3801D2914223D84546521A45EA67
:1005A000004126E731463046F9E6841A65EB03023E
:1005B000012017460BE7644402384AE764440238D6
:1005C000E4E6023D62442FE702396244C9E6AEF137
:1005D000020E3D446FE702386144CBE7023B3D44E5
:1005E0007EE7023D6244D9E718463146D7E600BFB0
:1005F000704700BF30B589B020220021684643F023
:1006000071FC0023042101221A48C0E90133C0E92A
:100610000433C0E90D33C360037780F8243080F8D9
:100620002C3080F84030836643640365C36380F8F0
:100630005430114B81618262036003F069F990B913
:1006400006250024042200230C490D480091039044
:1006500069460848CDE90154CDE9042303F034FB91
:1006600020B909B030BD01F021FAE9E701F01EFA26
:1006700009B030BD60BA0B20008002420008002E95
:100680000000FFFF0000000010B588B0202200210C
:10069000684643F027FC0023042101221E48C0E9DC
:1006A0000133C0E90433C0E90D33C360037780F838
:1006B000243080F82C3080F8403083664364036532
:1006C000C36380F85430154B81618262036003F08C
:1006D0001FF998B9062400224FF6FF739FED0C7B9B
:1006E0000F48694600900C488DED047BCDE901422E
:1006F000039303F0E9FA20B908B010BD01F0D6F970
:10070000E8E701F0D3F908B010BD00BFAFF30080F7
:100710000400000000000000ECBA0B20008102423F
:10072000010000800000000010B500210446C2B0A6
:10073000E0220AA8CDE90411CDE90611089143F0A1
:10074000D1FB374A2368934204D0364A934239D0CA
:1007500042B010BD9FED2E7B4FF480430AA88DED73
:100760000A7B369308F006F800284AD12E4A13680F
:100770000133012B13600CD12C4BD3F88C2042F4A5
:100780008062C3F88C20D3F88C3003F4806301932B
:10079000019B264B9FED207BD3F88C20244842F010
:1007A0000102C3F88C20D3F88C3004A903F00103B4
:1007B000029300238DED047B029A069304F0ACFBB8
:1007C00042B010BD9FED127B4FF480430AA88DED1F
:1007D0000A7B369307F0CEFFB0B9134A1368013392
:1007E000012B1360B4D1114BD3F88C2042F48062FA
:1007F000C3F88C20D3F88C3003F480630393039BFD
:10080000A6E701F053F9B1E701F050F9E5E700BFC1
:100810000080000000000000C00000000300000095
:1008200000800242008102425CBA0B20000C0246AA
:100830000000024208B5012041F0D8FDFBE700BFEF
:1008400008B536F0F3FCFCE708B50A2033F040FBAE
:100850000A2041F0CBFDF8E7704700BF704700BFAA
:10086000704700BF10B500210B4A0C4841F064FDF1
:1008700004460B4B00210B4A0B481C6041F05CFD09
:1008800004460A4B00210A4A0A481C6041F054FD04
:10089000094B186010BD00BF1C4004083508000853
:1008A00078BB0B2040400408490800087CBB0B20A3
:1008B000644004084108000880BB0B2008B50548C7
:1008C000054B036003F0A6FD00B908BDBDE8084074
:1008D00001F0ECB884BB0B20001002400A4B026808
:1008E0009A4200D07047094B82B0D3F8882042F07A
:1008F0000202C3F88820D3F8883003F00203019382
:10090000019B02B0704700BF00100240000C02467D
:1009100008B500230122074807498380C0E9053351
:100920000160026203F0F0FD00B908BDBDE80840B7
:1009300001F0BCB8ACBB0B20003002400A4B02688F
:100940009A4200D07047094B82B0D3F8882042F415
:100950008052C3F88820D3F8883003F48053019381
:10096000019B02B0704700BF00300240000C0246FD
:1009700010B58EB03022002102A843F0B3FA002354
:1009800019481A4A0193026003F034FEF0B90022BC
:1009900002240123144802A9CDE90522CDE9074329
:1009A0000292ADF81020099203F03AFEC0B900237C
:1009B0000D4801A9019303F02FFF70B910220A48D6
:1009C00002A903F02DFE20B90EB010BD01F06EF8A3
:1009D000DDE701F06BF80EB010BD01F067F8EDE750
:1009E00001F064F8E3E700BFD0BB0B20001802461B
:1009F00010B500210446C0B0E02208A8CDE90211DC
:100A0000CDE90411069143F06DFA214B22689A4218
:100A100001D040B010BD00239FED197B1D4A08A8EE
:100A20008DED347BCDE9082307F0A4FE20BB9FEDBC
:100A3000167B0024184B1948D3F8942002A942F0E1
:100A40004002C3F89420D3F8942002F040020092B0
:100A5000009AD3F88C2042F00102C3F88C20D3F81E
:100A60008C308DED027B03F001030193019B049414
:100A700004F052FA40B010BD01F018F8D7E700BFFB
:100A80000040000000800000300000000300000073
:100A90000018024600800010000C024600000242CE
:100AA00008B500230548064AC0E9002303F0E2FE2A
:100AB00000B908BDBDE8084000F0F8BFE4BB0B205A
:100AC0000014034008B500230548064AC0E9002386
:100AD00003F0D0FE00B908BDBDE8084000F0E6BF55
:100AE00010BC0B2000180340134A036882B09342E5
:100AF00013D0124A934201D002B07047104BD3F882
:100B0000882042F40012C3F88820D3F8883003F418
:100B100000130193019B02B07047094BD3F8882062
:100B200042F08042C3F88820D3F8883003F0804335
:100B30000093009B02B0704700140340001803406C
:100B4000000C02460000000008B5022200239FEDC1
:100B5000127B1348134980ED067B80ED147BC0E9BE
:100B60001032C0E91233C0E900138260C36003F0A1
:100B700011FF28B901210A4803F0EAFF40B908BD76
:100B800000F094FF0121064803F0E2FF0028F6D0B0
:100B9000BDE8084000F08ABF00000000000000002F
:100BA00040BC0B2000B002400F4B02689A4200D0BC
:100BB00070470E4B00B5D3F8881083B041F4802104
:100BC000C3F88810D3F88830762003F4802301938B
:100BD00000220521019B03F04BFC762003B05DF859
:100BE00004EB03F083BC00BF00B00240000C0246DF
:100BF00038B500234FF440750122022110240D481E
:100C0000C0E90135C0E90D33C36003828374C36357
:100C1000094BC0E90542C0E90711C0E90922C0E952
:100C20000B22036003F0F0FF00B938BDBDE8384087
:100C300000F03CBFA0BC0B2000A40040000000005E
:100C400010B500210446C0B0E02208A8CDE9021189
:100C5000CDE90411069143F045F9234B22689A42ED
:100C600001D040B010BD9FED1C7B4FF0807308A8F1
:100C70008DED087B2C9307F07DFD40BB1B4B9FED5A
:100C8000187BD3F8A020092442F40072C3F8A020F6
:100C9000D3F8A020164802F400720092009AD3F80C
:100CA0008C2002A942F00202C3F88C20D3F88C30C9
:100CB000002203F002030193019B03238DED027BCD
:100CC000CDE90423069404F027F940B010BD00F0EC
:100CD000EDFED3E7AFF30080000000080000000045
:100CE000000300000200000000A40040000C0246C7
:100CF000000402420000000000B58BB02822002151
:100D0000684643F0EFF804F069F848BB4FF0FF3352
:100D1000012102229FED1A7B68468DED087BCDE90B
:100D20000012CDE90233CDE90433CDE9063304F0F6
:100D3000A5F800BB4FF0FF3302226846CDE903332C
:100D4000CDE90533CDE9073302930092099304F00E
:100D500095F868B904F056F828B90BB05DF804FBB3
:100D600000F0A4FED2E700F0A1FE0BB05DF804FB9A
:100D700000F09CFEEEE700F099FEDBE7AFF30080A9
:100D8000FFFFFFFFFFFFFFFF2DE9F04F4FF0000ACD
:100D9000022491B0CDE90AAACDE90CAA824BCDF884
:100DA00038A0D3F88C20012542F01002C3F88C2023
:100DB000D3F88C20802102F010020092009AD3F820
:100DC0008C20DFF8FCB12243C3F88C20D3F88C20B0
:100DD000764E22400192019AD3F88C20584642F078
:100DE0004002C3F88C20D3F88C20DFF8D89102F0B1
:100DF00040020292029AD3F88C20DFF8CC8142F0B4
:100E00000802C3F88C20D3F88C20694F02F0080246
:100E10000392039AD3F88C2042F00402C3F88C208A
:100E2000D3F88C2002F004020492049AD3F88C20A8
:100E30002A43C3F88C20D3F88C202A400592059AC7
:100E4000D3F88C200A43C3F88C20D3F88C200A40B6
:100E50000692069AD3F88C2042F48072C3F88C2054
:100E6000D3F88C2002F480720792079AD3F88C2072
:100E700042F40072C3F88C20D3F88C2002F4007284
:100E80000892089AD3F88C2042F02002C3F88C20F4
:100E9000D3F88C30524603F020030993099B04F0E9
:100EA0003DF952463046082104F038F9524648468A
:100EB0004FF4817104F032F952464046102104F09B
:100EC0002DF94FF4807338460AA9CDE90B4ACDE9D4
:100ED0000D4A0A9304F020F8802358460AA9CDE968
:100EE0000B5A0A93CDF834A004F016F803230D939F
:100EF0004FF4C05338460AA9CDE90B4A0A9304F0CF
:100F00000BF8082330460AA9CDE90B540A93CDF813
:100F100034A004F001F803230D934FF480630A9387
:100F20000A2338460AA90E93CDE90B4A03F0F4FFD1
:100F3000304640261F4F0AA9CDE90A670C9503F0F9
:100F4000EBFF4FF481730126002748460AA90A9354
:100F5000CDE90B5ACDF834A003F0DEFF0AA91648FC
:100F6000CDE90A67CDF830A003F0D6FF1023CDE914
:100F70000C4A0B951024002540460AA90A9303F059
:100F8000CBFF0AA90D48CDE90A45CDF830A003F002
:100F9000C3FF52460521112003F06AFA112003F025
:100FA000A5FA11B0BDE8F08F000C02460010024215
:100FB0000000024200002110002402420008024208
:100FC000001C0242001802420014024208B5054803
:100FD000054B036004F0C0F800B908BDBDE8084047
:100FE00000F064BD04BD0B2000F00240194B026804
:100FF0009A4200D07047184B10B5D3F8880082B0E1
:1010000040F48010C3F88800D3F88840002204F42C
:1010100080140094009CD3F88840052144F4001407
:10102000C3F88840D3F88830842003F40013019378
:10103000019B03F01DFA842003F058FA852000225A
:10104000052103F015FA852002B0BDE8104003F039
:101050004DBA00BF00F00240000C0246704700BFCE
:1010600008B500230448036004F0AAF800B908BDDD
:10107000BDE8084000F01ABD10BD0B20074B82B040
:10108000D3F88C2042F40032C3F88C20D3F88C3093
:1010900003F400330193019B02B07047000C024639
:1010A0000023012210B51748174C1849C0E9023235
:1010B000C0E90041C0E90433C0E90633036204F02B
:1010C00023FA50B900210F4804F0F0FB68B9002161
:1010D0000C4804F015FC80B910BD00F0E7FC0021BD
:1010E000084804F0E3FB0028F1D000F0DFFC002109
:1010F000044804F005FC0028EED0BDE8104000F0E4
:10110000D5BC00BF54BD0B2000540040EC9D903076
:101110000023012210B51748174C1849C0E90232C4
:10112000C0E90041C0E90433C0E90633036204F0BA
:10113000EBF950B900210F4804F0B8FB68B9002161
:101140000C4804F0DDFB80B910BD00F0AFFC0021BD
:10115000084804F0ABFB0028F1D000F0A7FC002108
:10116000044804F0CDFB0028EED0BDE8104000F0AC
:101170009DBC00BFA8BD0B2000580040EC9D9030E6
:101180000023012210B51748174C1849C0E9023254
:10119000C0E90041C0E90433C0E90633036204F04A
:1011A000B3F950B900210F4804F080FB68B9002161
:1011B0000C4804F0A5FB80B910BD00F077FC0021BD
:1011C000084804F073FB0028F1D000F06FFC002108
:1011D000044804F095FB0028EED0BDE8104000F074
:1011E00065BC00BFFCBD0B2000840040EC9D90302E
:1011F000D0B500210446C4B0E0220CA8CDE9061108
:10120000CDE908110A9142F06DFE5D4A23689342D0
:1012100007D05C4A934238D05B4A934267D044B0CF
:10122000D0BD402200230CA8CDE90C2307F0A2FA80
:10123000002840F09C800422544C4FF4C046D4F85F
:101240008C30122743F04003C4F88C30D4F88C3033
:101250000A9203F0400300930022009B03234C48B2
:1012600006A9CDE90823CDE9066703F055FED4F8B9
:101270009C3043F40013C4F89C30D4F89C3003F441
:1012800000130193019B44B0D0BD802200230CA821
:10129000CDE90C2307F06EFA00286BD104223B4CF9
:1012A0003026D4F88C30122743F08003C4F88C30F9
:1012B000D4F88C300A9203F0800302930022029B40
:1012C0000323344806A9CDE90823CDE9066703F0D6
:1012D00023FED4F89C3043F48003C4F89C30D4F847
:1012E0009C3003F480030393039B44B0D0BD4FF4C0
:1012F000800200230CA8CDE90C2307F03BFA00285C
:101300003BD1402012210522002603271F4CD4F890
:101310008C3043F00203C4F88C30D4F88C30CDE923
:10132000060103F00203049306A91B48CDE90867F0
:10133000049B0A9203F0F0FDCDE9086703234FF404
:1013400000661227144806A90A93CDE9066703F040
:10135000E3FDD4F8A03043F00203C4F8A030D4F881
:10136000A03003F002030593059B44B0D0BD00F00C
:101370009DFB60E700F09AFB90E700F097FBC0E769
:10138000005400400058004000840040000C024619
:1013900000180242001C02420004024208B500206C
:1013A00004F0DAFA18B904F0EBFA30B908BD00F02D
:1013B0007DFB04F0E5FA0028F8D0BDE8084000F015
:1013C00075BB00BF0000000008B54FF6FF72002398
:1013D0009FED0D7B4FF400010D48C0E90133C0E9DA
:1013E0000333C0E90823C3620A4B80ED0C7B8162A2
:1013F0004261036004F0CEFA00B908BDBDE80840C0
:1014000000F054BBAFF300800000000000000000BB
:1014100050BE0B200094004030B500210446C1B0FE
:10142000E02208A8CDE90211CDE90411069142F0AD
:1014300059FD294B22689A4201D041B030BD4FF48A
:101440008062002308A8CDE9082307F093F900285B
:1014500034D10E209FED1C7B002400251F4B02A9D8
:10146000D3F8A02042F02002C3F8A020D3F8A02097
:1014700002F020020092009AD3F88C2042F002027F
:10148000C3F88C20D3F88C30069003F0020301934C
:1014900013488DED027B019BCDE9044503F03CFD33
:1014A0009FED0B7B02230E4802A98DED027BCDE957
:1014B0000445069303F030FD41B030BD00F0F6FA6C
:1014C000C7E700BFAFF30080020000000200000089
:1014D000008000000200000000940040000C024662
:1014E0000004024230B58FB03422002101A842F03E
:1014F000F9FC002303210B22234840F22B34C0E9DE
:101500000133C0E90333838680F8363040F2F313A9
:10151000C0E90511C0E9072240F2EB1140F2333275
:1015200003631A4BC0E90A124462036004F0DAFA5A
:1015300010BB00224FF4F0730224FF254FF44870D3
:10154000CDE90323069505944FF000554FF48064D0
:101550000C930523CDE901200B9001A90A48CDE9A0
:1015600008430792ADF834208DF836200A9504F030
:1015700091FB20B90FB030BD00F098FAD9E700F028
:1015800095FA0FB030BD00BFA0BE0B20006801402F
:1015900070B500210446C4B0E0220CA8CDE90611C4
:1015A000CDE908110A9142F09DFC4F4B22689A4206
:1015B00001D044B070BD04230024032202251893F7
:1015C0004B230221CDE90C4517920C2405221993D7
:1015D0004FF480230CA8CDE91A121C941F9307F036
:1015E000C9F8002878D1414B9FED3D7BD3F8A4206A
:1015F000002442F08062C3F8A420D3F8A42003257D
:1016000002F080620192019A0826D3F88C2006A984
:1016100042F01002C3F88C20D3F88C20344802F03A
:1016200010020292029AD3F88C2042F00802C3F80A
:101630008C20D3F88C2002F008020392039AD3F88E
:101640008C2042F04002C3F88C20D3F88C2002F0AA
:1016500040020492049AD3F88C2042F02002C3F88E
:101660008C20D3F88C308DED067B03F0200305939E
:10167000059BCDE908450A9603F04EFC4FF60B7228
:10168000022306A91B48CDE90623CDE908450A96A1
:1016900003F042FC40220223CDE90623072306A9DA
:1016A00015480A93CDE9084503F036FC02234FF4B0
:1016B000784206A91148CDE90623CDE908450A96E6
:1016C00003F02AFC00220521872002F0D1FE8720AA
:1016D00002F00CFF44B070BD00F0E8F983E700BFF2
:1016E00085FF00000200000000680140000C024677
:1016F00000100242000C0242001802420014024292
:101700004FF448702DE9F041002602253F27B1F93A
:101710000080B1F902E0154B1EFB0080DC6DB1F8D2
:1017200006C004EB40048888114B411C0CF10100F9
:10173000A1EB0801A0EB0E0009B200B240EA0140A3
:10174000C1F548711E60DD61DA601E615D63DC63B6
:10175000196458649F601A6842F400721A601A682B
:1017600042F001021A60BDE8F08100BFA0BE0B206C
:1017700000B00240014832F037BB00BF7C77172031
:1017800038B50F4D0F4C002228460F4B0F4932F051
:1017900041FA204632F01AFA237C0D490D4A23F013
:1017A000030343F00103216062610B490B4A2046A9
:1017B0002374E560BDE83840116232F039BA00BFE9
:1017C000607717207C77172000DC050060BF0B20B6
:1017D0002003E001011700087517000840BC0B202A
:1017E00030B520480C46037889B063B903F0FF0593
:1017F0001D4A1E4BB2F90020B3F90030A5732280B8
:10180000638009B030BD1022002564230DEB020176
:10181000029305700123CDE9001215488221CDE91C
:101820000455CDE9065503F0C9FE0028E0D1012595
:101830009DF813309DF812201B0203F470631A43C5
:101840009DF81510084B09021A809DF8143001F418
:1018500070610B430549A5730B802280638009B03A
:1018600030BD00BFF0771720EC771720EE771720F8
:1018700054BD0B2038B5134D01220821284603F032
:101880004DFC0A2002F032F800220821284603F01D
:1018900045FC0A2002F02AF80B4C012208212846B8
:1018A00003F03CFC0A2002F021F8204632F0B0FAA6
:1018B0000123064A204662602370BDE8384032F0BA
:1018C000B7BA00BF00100242CC771720E11700081A
:1018D000402802D10122014B1A707047F07717207F
:1018E000F0B59FB06022002106A842F0FBFA002369
:1018F0004FF44030CDE90033CDE90233CDE9043374
:1019000005F06EFB08B172B6FEE7044605F00EFB6B
:10191000244A2F21D2F8F030812523F01803C2F891
:10192000F0300223CDE91A3314934FF480730993F6
:101930004FF48053119350234FF4A022189308239F
:10194000CDE906120C9410221794089519930424DB
:101950004FF0806300260027032506A8CDE90A235F
:10196000CDE91C671694159505F062FE034608B193
:1019700072B6FEE7CDE902331F2321466846CDE962
:1019800004670195009305F0EFFC024608B172B6BA
:10199000FEE74FF0807105F027FC08F0DFFC1FB078
:1019A000F0BD00BF000C024600B583B001F062FF3D
:1019B000FFF796FF05F0A2FB00236846CDE9003350
:1019C00005F0BCFA05F004FB05F0A8FB022005F0C9
:1019D00059FB08B172B6FEE7FFF740FBFFF7D4F9F9
:1019E000FEF708FE00F064F8FEF792FFFFF758F8E4
:1019F000FFF768F8FFF7A8F8FFF7FAF8FFF7E6FA3D
:101A0000FFF72EFBFFF74CFBFFF782FBFFF7C6FC4F
:101A1000FFF768FD00F0C4FB00F048FD00F086FD14
:101A200001F0D6FEFEF730FEFEF748FFFEF7A0FFFE
:101A3000FFF7A6FBFFF7C8FC00F056FE00F09CFE87
:101A400001F0D2FA01F020F801F082F801F054F927
:101A500001F03EFB01F0B0FB01F036FC01F078FC38
:101A600001F0BCFC01F0FEFC00F0CAF8FFF744F9FD
:101A700001228021084803F051FB12F0C5FBFFF75B
:101A80007FFEFFF7F7FE0DF0EDFB40F003FCFEF7E5
:101A9000E9FE40F023FCFEE7001C02420368B3F1BC
:101AA000804F00D0704701F00FBF00BF72B6FEE755
:101AB0009FED157B184808B5012380ED0A7B9FED4B
:101AC000147B0022836080F82430144B80ED0C7B63
:101AD0000273036004F0AEF998B900229FED0A7B0F
:101AE000402002210E4B1A7683F8202083F8342000
:101AF00083ED007BC3E90201C3E919225A61DA666A
:101B000008BDFFF7D3FFE8E7000000000000000079
:101B10000400000001000000787817208040024691
:101B2000F877172000000000D0B500210446C2B0AD
:101B3000E0220AA8CDE90411CDE90611089142F08E
:101B4000D1F92B4B22689A4201D042B0D0BD4FF45C
:101B5000003200230AA8CDE90A2306F00BFE002874
:101B60003FD19FED217B032400260027214B04A9B0
:101B7000D3F89420204842F48062C3F89420D3F82C
:101B8000942002F480620192019AD3F88C2042F0F2
:101B90000202C3F88C20D3F88C2002F002020292D9
:101BA000029AD3F88C2042F02002C3F88C20D3F89C
:101BB0008C308DED047B03F020030393039BCDE970
:101BC0000667089403F0A8F9082202230B4804A929
:101BD000CDE90667CDE90423089403F09DF942B0EE
:101BE000D0BDFFF763FFBCE710000000020000005B
:101BF00080400246000C02460004024200140242E9
:101C0000704700BFF0B403464FF480514FF4804258
:101C10004FF080654FF480344FF480774FF4802686
:101C20004FF4806C0020C3E90776C3E90054F0BC90
:101C3000C3E90312C3E90512C3F808C0704700BF27
:101C400070B59AB005460C4616460021502206A8EB
:101C500042F048F90023019303935CBB012E53D05B
:101C600005220123CDE908234FF440534FF0807241
:101C70000E9301230B940F94149201224FF48000D1
:101C80001593102304900292284641F2883206A947
:101C90001894059304F040FB002835D141F28832B6
:101CA000284601A904F0B4FC003818BF01204042C6
:101CB0001AB070BD10214FF480640A914FF4405166
:101CC000012E0CBF01220022CDE90D414FF08061B1
:101CD00014914FEAC20140F2FA500B914FF0040107
:101CE0004FEAC222CDE908010F9204D004221C461B
:101CF00017920123C1E74FF00060052102234FF046
:101D00000054CDE91601B8E74FF0FF30D0E700BF2F
:101D100070B596B00D46044616460021502202A822
:101D200042F0E0F80023012DCDE9003336D0012345
:101D30000293002D68D10593002E4ED14FF480738D
:101D40000B224FF40051099308234FF080750A913C
:101D50000492204641F288320DEB03011095139353
:101D600004F0DAFA00285ED102230493022500234E
:101D700041F28832204602A91393029504F0CCFA6E
:101D8000034600284FD169462046009304F0C0FC6A
:101D9000003818BF0120404216B070BD002E42D05E
:101DA00010224FF48063069209934EF613420423E7
:101DB0004FF44051CDE9042302950A914FF080651C
:101DC000062341F28832204602A91095139304F0AD
:101DD000A3FA40BB41F2ED23C7E74FF480730C2216
:101DE0004FF44051099308234FF080750A910492F3
:101DF000204641F288320DEB03011095139304F055
:101E00008BFA80B91223B0E710234FF48062069357
:101E1000099204234EF61342CDE9042336B94FF458
:101E200000530A93CAE74FF0FF30B5E74FF4405331
:101E30000A93C3E70000000070B59AB004460D464F
:101E400016460021502206A842F04CF80023CDE9A6
:101E50000133CDE903330593002D41D1012E71D01B
:101E60009FED3B7B41F28832204606A98DED087B31
:101E70000B9504F051FA0346002863D105224FF474
:101E800040519FED357B4FF080750E9108921946B9
:101E9000012218468DED0C7B0F931495CDE9163178
:101EA0001592189041F28832204606A904F034FABF
:101EB0000346002846D1039302254FF480031026E1
:101EC000204641F2883201A9CDE90155CDE9043619
:101ED00004F09EFB003818BF012040421AB070BDCC
:101EE000A6F10105B5FA85F510239FED1D7B6D095F
:101EF0000A9341F28832EB00204606A90B938DED40
:101F0000087B04F009FA0346E0B940F2FA5208925D
:101F10004FF4405200204FF480610E924FF08062E7
:101F2000ED02012ECDE90C010F95149203D004218E
:101F300001221846B2E74FF00063052102224FF05C
:101F40000050ABE74FF0FF30C8E700BFAFF30080B1
:101F5000060000000100000000000000000000007A
:101F6000F906000004000000F0B50D4695B00446E7
:101F700016460021502268461F4641F0B3FF2DBB94
:101F8000012E46D07226069701274FF440514FF09C
:101F900080724FF48073CDE90267099508910E9223
:101FA0000793012341F28832694620460F9304F0DB
:101FB000B3F970BB41F2883220461AA904F030FA16
:101FC000003818BF0120404215B0F0BD012E0CBFF3
:101FD000012300234FF010024FF0040147F28D203F
:101FE00004924FEAC3024FEAC323CDE902010592EE
:101FF0004FF440514FF0806209934FF4806306978D
:1020000008910E920793CCD14FF0006202231092F8
:10201000C8E74FF0FF30D7E7F0B50C4695B005465E
:1020200016460021502268461F4641F05BFF3CBB2C
:10203000012E51D04FF08072012171200E92CDE916
:1020400002014FF480724FF440510123CDE9072182
:102050000697099441F28832694628460F931294F4
:1020600004F05AF9002837D141F2883228461A99EB
:1020700004F048FA003818BF0120404215B0F0BD06
:10208000012E0CBF012300234FF010024FF004017A
:1020900047F28E1004924FEAC3024FEAC323CDE900
:1020A000020105924FF440514FF0806209934FF4C2
:1020B0008063069708910E92079304D004220123AF
:1020C00000241192C6E74FF00060052102234FF073
:1020D0000054CDE91001BDE74FF0FF30CEE700BF5F
:1020E00070B513460C4694B006465022002168464F
:1020F0001D4641F0F7FE94B9012D1ED00122662342
:10210000039241F28832694630460494029304F007
:1021100003F9003818BF0120404214B070BD0423F9
:10212000012D039303D0102446F29963E9E70822B6
:10213000102446F299630592E3E74FF0FF30ECE795
:1021400070B513460C4694B00646502200216846EE
:102150001D4641F0C7FE94B9012D1ED001229923DE
:10216000039241F28832694630460494029304F0A7
:10217000D3F8003818BF0120404214B070BD0423CA
:10218000012D039303D0102449F66613E9E70822D2
:10219000102449F666130592E3E74FF0FF30ECE7B1
:1021A00030B5002497B00DA8CDE90844CDE90A4424
:1021B000079404940C940594FFF724FD6248634B44
:1021C0000422036002234361436220234FF08071A5
:1021D000426003614FF080520823C0E90644C0E921
:1021E0000E448460046284620463C160C26243631B
:1021F00004F010F800283ED101234FF00114544A96
:1022000051480B9207A941F28832CDE90733CDE955
:10221000093404F0C1FA002840F093800022002322
:10222000494804A9CDE9042304F0ECFD002840F05E
:102230008580002244481146FFF752FF002856D0FF
:10224000FFF734FC002240481146FFF7F9FC002854
:102250004AD100223C481146FFF7EEFD70B1FFF76E
:1022600025FC012238481146FFF752FD08B1FFF75F
:102270001DFC17B030BDFFF719FCBDE7072402466F
:1022800001464FF4407330480094FFF76DFE00287C
:10229000E5D1024601462C48FFF7CEFD0028DED1ED
:1022A000012503460246014600952748FFF75CFEDC
:1022B00004460028D3D1282001F018FB22462946E5
:1022C0002148FFF7BDFC0028C9D103AC03460246F4
:1022D00029461D480094FFF79FFE0028BFD19DF8B6
:1022E0000C30AB42BBD1BCE7FFF7E0FBB1E70246E5
:1022F00001461548FFF724FF0028A1D1024601211D
:102300001148FFF7EDFE00289AD1024601210E4840
:10231000FFF716FF002893D101220B481146FFF763
:10232000DFFE00288CD1012207481146FFF708FF85
:10233000002885D1642001F0D9FA83E7FFF7B6FBC6
:1023400077E7FFF7B3FB69E7BC78172000140D426D
:102350000100000100000000F0B500210446C5B0F6
:10236000E0220CA8CDE90611CDE908110A9141F04F
:10237000B9FD494B22689A4201D045B0F0BD4FF0FB
:10238000806200230CA8CDE90C2306F0F3F90028A5
:102390007AD1424B9FED3E7BD3F88C20002442F44F
:1023A0000012C3F88C20D3F88C20032502F400120D
:1023B0000192019A0327D3F8902006A942F0100257
:1023C000C3F89020D3F89020354802F01002029212
:1023D000029AD3F88C200A2642F02002C3F88C20FF
:1023E000D3F88C2002F020020392039AD3F88C20B9
:1023F00042F00402C3F88C20D3F88C2002F00402CF
:102400000492049AD3F88C2042F00102C3F88C2085
:10241000D3F88C308DED067B03F001030593059B0B
:10242000CDE908450A9702F077FD4FF47072022358
:1024300006A91B48CDE90623CDE908450A9602F016
:102440006BFD0E22022306A91648CDE90623CDE92D
:1024500008450A9602F060FD0622022306A91248EA
:10246000CDE90623CDE908450A9602F055FD012283
:1024700002230C4806A9CDE90845CDE906230A97B1
:1024800002F04AFD45B0F0BDFFF710FB81E700BF49
:10249000000400000200000000140D42000C02467F
:1024A00000140242000802420000024208B5002364
:1024B0000548064AC0E9002307F05AFF00B908BDE5
:1024C000BDE80840FFF7F2BA1879172000080C425F
:1024D00010B50446BAB0E022002102A841F002FD86
:1024E000104B22689A4201D03AB010BD4FF400223E
:1024F000002302A8CDE9022306F03CF970B90A4B8B
:10250000D3F88C2042F48022C3F88C20D3F88C308E
:1025100003F480230193019B3AB010BDFFF7C6FA84
:10252000EDE700BF00080C42000C024610B5002485
:102530009AB0302221460EA8CDE90144CDE90844E5
:10254000CDE90A44CDE90C44CDE90344CDE9054485
:10255000079441F0C7FCFF237F222D48C0E90223E6
:102560004FF4001303614FF08043C361294BC0E96E
:102570000544C0E908444460036008F007FB0028F4
:1025800035D10023224807A9CDE90A3307930C93DC
:1025900009F064F8002837D1002301221C4802A961
:1025A000CDE90533ADF808308DF80A3008F05CFB52
:1025B00038BB194B0122164801A9019308F0E4FD2C
:1025C000E0B9002301224FF4807411480EA9CDE92F
:1025D0001333ADF838308DF83A300F9316938DF8E9
:1025E0005C20199407F02AFF20B91AB010BDFFF73C
:1025F0005DFAC6E7FFF75AFA1AB010BDFFF756FAB0
:10260000DFE7FFF753FAD4E7FFF750FAC4E700BF5C
:102610002C7917200078004601010100000000001D
:1026200010B500210446C0B0E02208A8CDE902118F
:10263000CDE90411069141F055FC274B22689A42DE
:1026400001D040B010BD9FED207B4FF4807308A8EF
:102650008DED087B3B9306F08DF890BB1F4B9FEDF3
:102660001C7BD3F8F02002A942F40042C3F8F0200A
:10267000D3F8A82042F40012C3F8A820D3F8A82069
:1026800002F400120092009AD3F8D82042F400120B
:10269000C3F8D820D3F88C2042F00402C3F88C2071
:1026A000D3F88C30002203F0040301930023019837
:1026B0000B488DED027BCDE9042302F02DFC40B0E8
:1026C00010BDFFF7F3F9C9E70000040000000000A7
:1026D000002000000200000000780046000C0246C6
:1026E00000080242000000004FF0806220480023F2
:1026F00030B582614FF0804285B0C0E90433C0E953
:102700000733C0E90933C0E90E33C0E91233C0E929
:102710001433CDE90133009383600366154B4263A4
:102720000360002200234FF4800503240721C0E941
:1027300016234560C460C16208F0AEFF60B99FED2A
:102740000A7B002369460A488DED007B029309F05D
:1027500061F820B905B030BDFFF7A8F9EFE7FFF742
:10276000A5F905B030BD00BF00000000000000105A
:1027700060791720003001404FF08062204800232C
:1027800030B582614FF0804285B0C0E90433C0E9C2
:102790000733C0E90933C0E90E33C0E91233C0E999
:1027A0001433CDE90133009383600366154B426314
:1027B0000360002200234FF4800503240721C0E9B1
:1027C00016234560C460C16208F066FF60B99FEDE2
:1027D0000A7B002369460A488DED007B029309F0CD
:1027E00019F820B905B030BDFFF760F9EFE7FFF742
:1027F0005DF905B030BD00BF000000000000001012
:10280000F07917200038004010B500210446C2B00E
:10281000E0220AA8CDE90411CDE90611089141F0A2
:1028200061FB454A2368934204D0444A934236D020
:1028300042B010BD9FED387B4FF480130AA88DED98
:102840000A7B3A9305F096FF00285CD13C4B0520AB
:10285000D3F8A4209FED327B42F48052C3F8A42029
:10286000D3F8A42004A902F480520092009AD3F86D
:102870008C2042F04002C3F88C20D3F88C301C220C
:1028800003F040030193022308902E488DED067B50
:10289000CDE90423019C02F03FFB42B010BD9FED47
:1028A000227B4FF480330AA88DED0A7B3B9305F021
:1028B00061FF58BB224B9FED1E7BD3F89C20052463
:1028C00042F48042C3F89C20D3F89C201E4802F4B6
:1028D00080420292029AD3F88C2004A942F48072BA
:1028E000C3F88C20D3F88C30002203F48073039358
:1028F000039B03238DED047BCDE90623089402F0AE
:102900000BFB42B010BDFFF7D1F89FE7FFF7CEF801
:10291000D0E700BFAFF3008000008000000000009F
:1029200000000000030000000000000100000000A3
:102930000E0000000200000000300140003800409E
:10294000000C024600180242002002420C4B00B567
:10295000D3F8942083B042F00402C3F89420D3F853
:10296000943003F004030193019B04F0CFFB002299
:102970000F216FF0010003B05DF804EB01F078BDAA
:10298000000C0246244B70B5D3F89C2088B042F06E
:102990000102C3F89C20D3F89C30694603F0010380
:1029A0000193064602A8019B05F0E2FD05F0E2FB5B
:1029B00040F2E733194C0022E36003464FF08041B8
:1029C0002261A260164A2046A2FB03239B0C013B16
:1029D0002160636009F0E2F8054628B12D2001F07E
:1029E00085FD284608B070BD204609F08FF90546E0
:1029F0000028F3D10F2E06D901252D2001F076FDF8
:102A0000284608B070BD024631462D2001F030FD49
:102A1000044B1E60E2E700BF000C0246807A1720DC
:102A200083DE1B4308B80B20FEE700BFFEE700BFB4
:102A3000FEE700BFFEE700BFFEE700BF704700BF34
:102A4000402002F073BB00BF014809F061BD00BF28
:102A5000807A1720014801F0E5BF00BF40BC0B2081
:102A6000014802F093BB00BF04BD0B20014802F0F7
:102A7000A3BB00BF04BD0B20014803F0A9B800BFF1
:102A8000A0BE0B200000000000234FF0FF3200B575
:102A90002D482E498FB0C0E90133CDE90A33CDE985
:102AA0000C33CDE90533CDE902330160C2600993EF
:102AB0000493019303618361079309F0F5FA68BBFE
:102AC000002360200422CDE90C330223CDE9092044
:102AD00009A91D480B9309F073FC68BB002202236F
:102AE000194804A9CDE90423CDE9062209F07AFFAB
:102AF000F8B99FED137B0422134804A98DED047BE4
:102B000009F070FF90B900230F4801A901930393C6
:102B10000AF010F828B90FB05DF804FBFEF7C6FF05
:102B2000CEE7FEF7C3FF0FB05DF804FBFEF7BEFF74
:102B3000E9E7FEF7BBFFDCE7FEF7B8FFCEE700BF33
:102B40000200000001000000647B17200004004028
:102B500000234FF0FF3210B55F4C604996B020461D
:102B6000C4E90133CDE90633CDE90F33CDE91133A3
:102B7000CDE913332160E26005930E932361A361D5
:102B800009F0DAF978BB0023534805A905930793A8
:102B900009F0D0FF20BB00239FED477B0C224E485D
:102BA0000EA98DED0E7B1093129309F037FEA0B99C
:102BB000002322684A49CDE908338A42CDE90A3325
:102BC0000C932BD0454B9A4241D0464B9A4257D05A
:102BD000454B9A420AD016B010BDFEF767FFE7E7F3
:102BE000FEF764FFD7E7FEF761FFCCE79FED347B8C
:102BF0000E243E4B3E48D3F88C2008A942F0020236
:102C0000C3F88C20D3F88C308DED087B03F00203E1
:102C10000493049B0C9402F07FF9DCE79FED2A7B80
:102C20000124324B3248D3F88C2008A942F002022A
:102C3000C3F88C20D3F88C308DED087B03F00203B1
:102C40000193019B0C9402F067F916B010BD9FED43
:102C50001E7B0224254B2748D3F88C2008A942F478
:102C60008072C3F88C20D3F88C308DED087B03F490
:102C700080730293029B0C9402F04EF916B010BDC3
:102C80009FED137B0324194B1A48D3F88C2008A915
:102C900042F48072C3F88C20D3F88C308DED087B21
:102CA00003F480730393039B0C9402F035F916B080
:102CB00010BD00BFAFF30080600000000000000006
:102CC00000400000020000000100000002000000BF
:102CD0004000000002000000B07B1720000C004004
:102CE000002C01400034014000400140000C02462D
:102CF000000402420020024200234FF6FF7200B59A
:102D00001048114985B0C0E90133CDE902330160B3
:102D1000C2600193836108F041FF50B90023094864
:102D200001A90193039309F005FF28B905B05DF8E7
:102D300004FBFEF7BBFEF1E7FEF7B8FE05B05DF859
:102D400004FB00BFFC7B172000100040134A0368FF
:102D500082B0934213D0124A934201D002B070471E
:102D6000104BD3F8A42042F40052C3F8A420D3F8A7
:102D7000A43003F400530193019B02B07047094B48
:102D8000D3F8A42042F40062C3F8A420D3F8A430FE
:102D900003F400630093009B02B07047002C0140D5
:102DA00000340140000C0246002310B51A4A0168A5
:102DB00088B09142CDE90233CDE90433069301D0C6
:102DC00008B010BD02249FED127B144B1448D3F8B9
:102DD0009C2002A92243C3F89C20D3F89C202240C7
:102DE0000092009AD3F88C2042F00402C3F88C20A1
:102DF000D3F88C308DED027B03F004030193019B2B
:102E0000069402F089F808B010BD00BFAFF300804F
:102E1000800000000200000000040040000C024698
:102E2000000802420A4B02689A4200D07047094BE0
:102E300082B0D3F89C2042F00802C3F89C20D3F85B
:102E40009C3003F008030193019B02B0704700BF60
:102E5000000C0040000C0246134A036882B0934203
:102E600013D0124A934201D002B07047104BD3F8EE
:102E7000A42042F48032C3F8A420D3F8A43003F491
:102E800080330193019B02B07047094BD3F89C201B
:102E900042F01002C3F89C20D3F89C3003F01003DA
:102EA0000093009B02B070470010004000400140BA
:102EB000000C024600000000002310B542490268E1
:102EC0008AB08A42CDE90433CDE90633089322D093
:102ED0003E4B9A4238D03E4B9A424ED03D4B9A429E
:102EE00001D00AB010BD9FED327B0E243A4B3B4817
:102EF000D3F88C2004A942F00202C3F88C20D3F846
:102F00008C308DED047B03F002030393039B089444
:102F100002F002F8E5E79FED287B01242E4B2F48B5
:102F2000D3F88C2004A942F00202C3F88C20D3F815
:102F30008C308DED047B03F002030093009B08941A
:102F400001F0EAFF0AB010BD9FED1B7B0224224B6B
:102F50002348D3F88C2004A942F48072C3F88C2053
:102F6000D3F88C308DED047B03F480730193019BC7
:102F7000089401F0D1FF0AB010BD9FED117B03242E
:102F8000154B1748D3F88C2004A942F48072C3F87B
:102F90008C20D3F88C308DED047B03F48073029386
:102FA000029B089401F0B8FF0AB010BDAFF3008097
:102FB00000400000020000000100000002000000CC
:102FC0004000000002000000002C0140000C004006
:102FD0000034014000400140000C0246000402425F
:102FE000002002420000000010B5002498B03422F6
:102FF00021460BA8CDE90144CDE90544CDE90744BC
:10300000CDE909440094049440F06CFF4FF6FF733F
:103010002D48C3602D4BC0E90144C0E904448461DC
:10302000036008F0D1FE002837D1002000220023E1
:10303000029069462448CDE9002309F07BFD002871
:1030400038D100239FED1E7B04221F4804A98DED7B
:10305000087BCDE90533049307930A9309F092FBAB
:1030600028BB00234FF400544FF0007216480BA900
:10307000CDE90B33CDE90D33CDE90F34CDE9113373
:10308000CDE91332CDE91533179309F0CBFD38B9EB
:103090000D48FFF711FF18B010BDFEF707FDC4E79C
:1030A000FEF704FD0848FFF707FF18B010BDFEF754
:1030B000FDFCD6E7FEF7FAFCC3E700BFAFF30080E4
:1030C0000000000000000000CC7A1720002C014016
:1030D00010B5002498B0342221460BA8CDE9014454
:1030E000CDE90544CDE90744CDE9094400940494B1
:1030F00040F0F8FE4FF6FF732D48C3602D4BC0E93A
:103100000144C0E904448461036008F05DFE0028C6
:1031100037D1002000220023029069462448CDE9DF
:10312000002309F007FD002838D100239FED1E7B06
:1031300004221F4804A98DED087BCDE905330493D3
:1031400007930A9309F01EFB28BB00234FF4005499
:103150004FF0007216480BA9CDE90B33CDE90D33C2
:10316000CDE90F34CDE91133CDE91332CDE9153373
:10317000179309F057FD38B90D48FFF79DFE18B0B9
:1031800010BDFEF793FCC4E7FEF790FC0848FFF77C
:1031900093FE18B010BDFEF789FCD6E7FEF786FC5B
:1031A000C3E700BFAFF30080000000000000000094
:1031B000487C17200034014010B500249EB0342212
:1031C000214610A8CDE90544CDE90244CDE90944E2
:1031D000CDE90B44CDE90D4404940194089407947F
:1031E00040F080FE40F2E73304223548C360354B9F
:1031F000C0E90444846084614260036008F0CEFC4E
:1032000000283DD14FF480532D4804A9049309F0C0
:1032100003F8002847D12A4808F08EFE00283FD145
:103220000023274801A90193039309F083FC002898
:1032300033D10022602440F2E5339FED1D7B20480E
:1032400008A98DED0C7BCDE908430A920B920E92F2
:1032500009F0E4FAF0B900239FED177B184810A994
:103260008DED147BCDE911331093139316931C93BA
:1032700009F0D8FC38B91248FFF71EFE1EB010BD89
:10328000FEF714FCBEE7FEF711FC0D48FFF714FE35
:103290001EB010BDFEF70AFCDDE7FEF707FCC8E72D
:1032A000FEF704FCBCE7FEF701FCB4E7AFF30080D7
:1032B00000000000000000000000000000200000EE
:1032C000187B17200040014000234FF4E1310C220D
:1032D00010B51D481D4CC0E90113C0E90333C0E916
:1032E0000523C0E90733C0E90933046009F0A4FEEF
:1032F00070B9002114480AF007F888B90021124873
:103300000AF044F8A0B9104809F0E0FFB8B910BDC0
:10331000FEF7CCFB00210C4809F0F6FF0028EDD0A9
:10332000FEF7C4FB002108480AF030F80028EAD074
:10333000FEF7BCFB044809F0C9FF0028E7D0BDE850
:103340001040FEF7B3BB00BF947C1720003801404B
:1033500010B500234FF4E1340C214FF440721D48A6
:10336000C0E90143C0E90333C0E90733C0E90933C9
:10337000194BC0E90512036009F05EFE70B9002127
:10338000144809F0C1FF88B90021124809F0FEFF76
:10339000A0B9104809F09AFFB8B910BDFEF786FB36
:1033A00000210C4809F0B0FF0028EDD0FEF77EFBAD
:1033B0000021084809F0EAFF0028EAD0FEF776FB72
:1033C000044809F083FF0028E7D0BDE81040FEF76D
:1033D0006DBB00BF287D17200044004000234FF440
:1033E000E1310C2210B51D481D4CC0E90113C0E9A4
:1033F0000333C0E90523C0E90733C0E9093304609A
:1034000009F01AFE70B90021144809F07DFF88B94F
:103410000021124809F0BAFFA0B9104809F056FF80
:10342000B8B910BDFEF742FB00210C4809F06CFF53
:103430000028EDD0FEF73AFB0021084809F0A6FF6E
:103440000028EAD0FEF732FB044809F03FFF0028CD
:10345000E7D0BDE81040FEF729BB00BFBC7D1720B8
:103460000048004000234FF4E1310C2210B51D4804
:103470001D4CC0E90113C0E90333C0E90523C0E9CD
:103480000733C0E90933046009F0D6FD70B90021A3
:10349000144809F039FF88B90021124809F076FF75
:1034A000A0B9104809F012FFB8B910BDFEF7FEFA36
:1034B00000210C4809F028FF0028EDD0FEF7F6FAAD
:1034C0000021084809F062FF0028EAD0FEF7EEFA72
:1034D000044809F0FBFE0028E7D0BDE81040FEF7E5
:1034E000E5BA00BF507E17200064004000000000D5
:1034F000D0B500210446CAB0E02212A8CDE90C11D3
:10350000CDE90E11109140F0EDFCA54A23689342DD
:1035100056D0A44A934200F09E80A34A934200F002
:10352000E480A24A934201D04AB0D0BD4FF000528D
:10353000002312A8CDE9122305F01CF9002840F061
:10354000278107249FED947B00260027984B0CA928
:10355000D3F89C20974842F00072C3F89C20D3F81F
:103560009C2002F000720992099AD3F88C2042F054
:103570001002C3F88C20D3F88C2002F010020A92BB
:103580000A9AD3F88C2042F40072C3F88C20D3F846
:103590008C308DED0C7B03F400730B930B9BCDE90A
:1035A0000E67109401F0B8FC1022022382480CA987
:1035B000CDE90E67CDE90C23109401F0ADFCB3E723
:1035C0000122002312A8CDE9122305F0D3F8002828
:1035D00040F0D580764B0724D3F8A420002642F48F
:1035E0008042C3F8A420D3F8A420002702F480422C
:1035F0000092009AD3F88C20704842F00202C3F87F
:103600008C20D3F88C2002F002020192019AD3F8A8
:103610008C2042F04002C3F88C20D3F88C308022FA
:1036200003F040030293022302990CA9CDE90C2375
:10363000CDE90E67109401F06FFC4FF40072022385
:103640005F480CA9CDE90E67CDE90C23109401F079
:1036500063FC4AB0D0BD0222002312A8CDE9122398
:1036600005F088F8002840F08D80514B0724D3F8EE
:103670009C20002642F40032C3F89C20D3F89C2002
:10368000002702F400320392039AD3F88C204D48AD
:1036900042F00802C3F88C20D3F88C2002F0080214
:1036A0000492049AD3F88C2042F00102C3F88C20D3
:1036B000D3F88C30302203F00103059302230599DF
:1036C0000CA9CDE90C23CDE90E67109401F024FC80
:1036D000092202233C480CA9CDE90E67CDE90C2351
:1036E000109401F019FC4AB0D0BD0422002312A8A6
:1036F000CDE9122305F03EF8002846D12C4B0724D3
:10370000D3F89C20002642F48022C3F89C20D3F8F2
:103710009C20002702F480220692069AD3F88C207F
:10372000264842F00202C3F88C20D3F88C2002F025
:1037300002020792079AD3F88C2042F00402C3F8E1
:103740008C20D3F88C304FF4806203F0040308938C
:10375000022308990CA9CDE90C23CDE90E6710943A
:1037600001F0DAFB2022022318480CA9CDE90E67EC
:10377000CDE90C23109401F0CFFB4AB0D0BDFEF789
:1037800095F927E7FEF792F96FE7FEF78FF9B5E7AE
:10379000FEF78CF9D5E600BF020000000200000031
:1037A00000380140004400400048004000640040F0
:1037B000000C0246001002420024024200040242B1
:1037C00000180242000C02420000024200080242BD
:1037D000704700BFDFF834D000F026F8002103E086
:1037E0000B4B5B58435004310A480B4B42189A422A
:1037F000F6D30A4A02E0002342F8043B084B9A42FF
:10380000F9D340F077FBFEF7CFF8FEE70000272062
:10381000D048060800B80B2038BA0B2040BA0B205D
:1038200050091A20FEE700000022012110B44FF0D9
:1038300000640E48D0F8883043F47003C0F8883034
:103840000B4B1960DA611A625A62196821F0A851AB
:1038500021F4102119609A62196821F480211960FD
:103860001A6584605DF8044B704700BF00ED00E00E
:10387000000C0246104A10B51368032043F480730D
:10388000136000F0E3FD03F0DFFC03460B4A0C4835
:10389000126A0C4902F00F02825C0F20D3400B60C9
:1038A000FFF770F810B10124204610BD0446FFF761
:1038B0004DF8204610BD00BF00200240000C02461B
:1038C0008840040800B80B20034A044B11681B7899
:1038D0000B441360704700BFE47E172004B80B2030
:1038E000014B1868704700BFE47E172038B50446C6
:1038F000FFF7F6FF631C054602D0044B1B781C44FF
:10390000FFF7EEFF431BA342FAD338BD04B80B20E8
:10391000002800F0AA80F0B5856F044683B0002D22
:1039200000F08580226893689E0005D5936823F097
:10393000204323F03F0393609368DD0019D4664B66
:1039400066481B6891689B09A0FB030321F01041A6
:103950009B0921F03F0101335B0041F080519160F0
:103960000193019B2BB1019B013B0193019B002B18
:10397000F9D19368D80012D40120A36F43F010034B
:10398000A367E36F0343E367936859070BD5A36FFE
:103990000120A36F43F01003A36703B0F0BD936849
:1039A00000205907F3D4A56F15F01005F0D1A36FCF
:1039B00023F4817343F00203A367936813F0010FAC
:1039C000474B3AD09A4200F0A580A368616C94F806
:1039D0002C60194394F82430012E41EA433141EA26
:1039E000064300F0338126693D498A4200F0BC80DD
:1039F000616B21B1A56B01F4787129430B43D56844
:103A0000384929401943D16093685F072FD59368DF
:103A1000012E00F01381136B23F00F031363A36FC8
:103A200023F0030343F00103A36703B0F0BDFCF7E9
:103A30007BFEE56784F8745074E79A4258D02A49AF
:103A40008A4200F00981294EB24200F0EF809B6863
:103A5000DB07BAD401F18061A1F5DA418B686668B1
:103A600023F4701333438B60AFE7012070479368F2
:103A70001D07CDD41C4B217F9A42E56B4FEA813163
:103A800004D003F580739A4218BF6D00D36823F405
:103A9000804323F003030B43E1682B43D36051B110
:103AA000136F23F47F5323F03F030B431367136F0C
:103AB00043F00043136794F85430012B00F0D78093
:103AC000136923F0010313611369216D23F070431F
:103AD0000B4313619CE700BF00B80B20632D3E052C
:103AE0000010024613C0F0FF008002420081024233
:103AF000A368D168013B21F00C0103F00C030B43D8
:103B0000694ED3606368B16803F4701321F47011D7
:103B10000B43B36094F824C0277F6669636C4FEA57
:103B20004C3141EA8731003B41EA0601266918BF62
:103B30000123002EA8BF4FF4001E94F840704FEAF6
:103B4000033341EA4701B8BF26F0004E194341EA6A
:103B50000E0394F82C1001297FF446AFBCF1000F3E
:103B600040F0988043F48033626B22B1A16B02F481
:103B7000E0720A4313434D494D4ACF683A401A4315
:103B8000CA60226A12B14F6C3A434A64E26E1AB1BB
:103B900046494F6C3A434A6494F85420012A3AD07B
:103BA000424A444917693940294311615169A56C5A
:103BB00021F00701294351615169E56C21F0700141
:103BC00041EA051151610EB3B6F5001F0DD1956A9A
:103BD0006FF00F05A16A0139890001F01C0105FA97
:103BE00001F1D4F88850294391623049324AC968BA
:103BF0000A409A4238D00120A36F23F0120343F009
:103C00001003A367E36F0343E367C6E6916A61F0BD
:103C10000F019162E9E7A26DA16E42EA0105E26D32
:103C20001543226E154345F00105B9E7896893688D
:103C30000B43DB073FF5C9AE20490FE7116BA36AC1
:103C400021F00F01013B0B431363E8E6216B26696A
:103C5000013943EA4143CBE6194B91689B680B431A
:103C6000D9073FF5B2AEE7E70023E367D7E6D4E92B
:103C7000173115690B43134929400B43616E0B4300
:103C8000A16D43EA0143A16E43EA910343F00103AE
:103C9000136119E7A26F42F02002A267E26F42F0BF
:103CA0000102E26760E700BF00130246001002460F
:103CB0000D80DEFF02FCFFF7F3FF3F83008302422B
:103CC000008102421EF800FC00220346F0B590F885
:103CD000740083B0012801921A6800F0038101206A
:103CE00083F874009468650708D59A6F42F0200243
:103CF0009A67002283F8742003B0F0BDC24CA24240
:103D00000C6800F09D8034F07F453CD094FAA4F517
:103D100015B1B5FA85F5A840C4F384641F25D669AA
:103D200002F1300E3043D06148684FEA901C0CF02D
:103D30000C0C2840844085405EF80C0020EA050009
:103D400020434EF80C009068440720D59068906896
:103D5000C00716D4CE680C68AC48D2F8C05006F044
:103D60001807F84024F07F47204025EA070528433C
:103D700016F5803FC2F8C00000F0EC80002CC0F2C5
:103D8000B4800020B5E7C4F38464A040C6E790681F
:103D900010F00800DBD10D688F6835F07F4400F02B
:103DA000228195FAA5F4B4FA84F44FF0070CC5F318
:103DB000406606EB8606A4EB4604ED0D05F004050F
:103DC00004EB440402F11406A7400CFA04FC7459F5
:103DD00024EA0C043C437451D1E90464042ED568F0
:103DE00000F07881C5F381056D00AC400D6802F1EB
:103DF00060076D0005F078452C4357F8265005F014
:103E0000E0652C4347F826400E69CD6957F82640F7
:103E100024F080742C4347F826408C7E012C00F05F
:103E2000F4810C6957F8240020F0007047F8240052
:103E30000C6957F8240020F0806047F8240086E7DA
:103E40004D68022D00F003811E6926F01006B6F1C0
:103E5000004F00F0F0800F2005F01F0CD3F88860B1
:103E600000FA0CF0AD0834F07F4726EA000605F1B1
:103E700001056FEA000000F0DB8094FAA4F7B7FABE
:103E800087F707FA0CF73E43C3F888609E6AB5428D
:103E900040F288815C4D8A686969002C82EA0102DF
:103EA00002EA042282EA01026A61BFF66AAF584957
:103EB00058488A68844202F0E07600F079815648DA
:103EC000844200F0E4815548844240F08F815202E0
:103ED0003FF557AF8A6822F0E072324342F4800225
:103EE0008A604EE7022003B0F0BD4D498A427DD082
:103EF00001F580718A4279D045498868A1F5407101
:103F0000896800F0E075C94301F00101002900F063
:103F1000CC8044498C4200F0928143498C4200F0AD
:103F2000C1813E498C427FF42CAF46023FF529AF58
:103F30003B498A4204D001F580718A427FF421AF67
:103F40003A4900208A6822F0E0722A4342F4800253
:103F50008A60CEE6CFB394FAA4F5002D00F0048178
:103F6000B5FA85F0013000F01F06092E40F2FC8002
:103F70008006B5FA85F500F0F8440120054405F007
:103F80001F05A840204340F0007030F07F448E6849
:103F900040F09B80C0F384640727C0F3406505EBC5
:103FA0008505A4EB450404EB4404C00D06FA04F5B2
:103FB00000F0040007FA04F602F114073C5824EA62
:103FC00006042C433C500C68D8E6A00E013000F0EB
:103FD0001F06092E00F2E080800600F0F84501205F
:103FE000B0402843D1E7C5F38464DEE60F49886812
:103FF0000B4900F0E0758E6801F5807189683143E6
:10400000C94301F0010181E700100246FFFF0F00E4
:1040100000130246002000B6004000BA01000080F4
:1040200000800242000008CE000004CA0083024261
:10403000C4F3846725E734F07F423CD1C4F3846243
:1040400000FA02F2A54DA86A0243AA6222E71969A2
:1040500021F01001B1F1004F06D1916AC4F38465DB
:10406000A84021EA00019162002CBFF68AAE9C486C
:104070009C4984428A6800F073819B48844200F026
:10408000B3819A48844200F0BC8199498C427FF404
:1040900078AE12F480007FF474AE9049D1F8D0204D
:1040A00042F00102C1F8D02023E69A6F012042F0CD
:1040B00020029A671DE694FAA4F2002A00F0928189
:1040C000B2FA82F200FA02F2BCE790FAA0F4B4FA73
:1040D00084F461E70C68106E106E34F07F474FEA8D
:1040E0009060264600F01E0040F0F180C4F3846525
:1040F00085420BD1156E600000F0784005F0E06459
:10410000204310660C68264624F07F47506E506EA0
:1041100002F16005800E00F01E0002F1640C002F19
:1041200040F0F980C4F38467B84200F03981906EA2
:10413000906E02F1680C800E00F01E00B84200F094
:104140001781E868E86805F10C04800E00F01E0095
:1041500087427FF4FCAD2568700000F0784005F0E0
:10416000E06528432060F2E594FAA4F5002D00F004
:104170004581B5FA85F50135AD0605F0F84594FAA7
:10418000A4F4002C00F038810120B4FA84F4044433
:1041900004F01F04A04024E7800600F0F84401204A
:1041A000B040EFE6926A10404C4A3843906271E6A4
:1041B00014023FF5E6AD8A684E4822F0E0723243C1
:1041C00042F400028A6002684B499209A1FB021284
:1041D000920952000192019A002A3FF4D2AD019A4D
:1041E000013A0192019A002AF9D1CAE540498C426C
:1041F0007FF4C7AD12F480007FF4C3ADD5F8D020B2
:1042000042F00102C5F8D02073E54C7E0D69002C08
:1042100000F0E080A4F10104B4FA84F457F825001A
:10422000640920F0007047F825000D69A00657F8D2
:10423000254024F08064204347F8250087E50102EB
:104240003FF59FAD2D498A4204D001F580718A4225
:104250007FF497AD2A4927488A6822F0E0722A4302
:1042600042F400028A60026823499209A1FB02120B
:104270009209013252000192019A002A3FF481AD65
:10428000019A013A0192019A002AF9D179E5D00107
:104290003FF577AD8A6822F0E072324342F08072D7
:1042A0008A606EE5C7013FF56CAD14498A4204D0BF
:1042B00001F580718A427FF464AD114900208A685B
:1042C00022F0E0722A4342F080728A6011E594FA8B
:1042D000A4F5BDB1B5FA85F50AE700BF00100246A6
:1042E000000008CE00130246000004CA010000804E
:1042F000000020D700B80B20632D3E05008002424D
:1043000000830242506E506E02F16005800E00F094
:104310001E0002F1640C94FAA4F61EB1B6FA86F6F9
:10432000B0423DD0A868A86805F1080C800E00F0E6
:104330001E0094FAA4F61EB1B6FA86F6B04217D063
:10434000E868E8682646800E05F10C0400F01E00BF
:1043500096FAA6F7002F3FF4FAACB7FA87F7F7E61C
:10436000886802F0A07220F0E07002438A6008E5DD
:104370006000DCF8004000F0784004F0E064204386
:10438000CCF80000E8680E68E86805F10C04800EBF
:1043900036F07F4500F01E00DAD1C6F38467D7E619
:1043A0006000DCF8004000F0784004F0E064204356
:1043B000CCF800000C68A868A86834F07F474FEA82
:1043C0009060264605F1080C00F01E00B1D1C4F340
:1043D0008467B3E657F8254044F0007447F8254059
:1043E0000D6924E702462DE6886802F4400220F0B9
:1043F000E07002438A60C4E40220F2E54FF0806579
:10440000BDE6886802F0C07220F0E07002438A6066
:10441000B7E400BFB8B110B590F82130044603F0FE
:10442000FF025BB100230122636284F82120184659
:10443000C4E90133C4E90333636110BD80F820206F
:10444000FCF74CFAEEE70120704700BF4FF6FF0C77
:1044500006490302CA6803F4E06302EA0C0213434C
:1044600043F0BF6343F40033CB60704700ED00E0DE
:104470001C4B00B5DB68C3F30223C3F1070EBEF18A
:10448000040F03F1040C28BF4FF0040EBCF1060F1B
:104490001BD94FF0FF3C033B0CFA03FC22EA0C0251
:1044A0004FF0FF3C0CFA0EFC21EA0C019940002869
:1044B00041EA02010CDB090100F16040C9B200F5DC
:1044C000614080F800135DF804FB00221346E7E723
:1044D000054B00F00F000901C9B2034419765DF8DD
:1044E00004FB00BF00ED00E0FCEC00E0002807DB6F
:1044F000012300F01F01034A40098B4042F820309D
:10450000704700BF00E100E0002836D038B5437F97
:10451000044603F0FF0263B3022223796277F3B902
:104520002368174A5A619A6822F018029A606279E1
:104530008AB122691A6101219A68656922F06002D4
:104540002A439A609A68A56922F080022A439A60F9
:104550006177002038BD4FF0FF321A61EBE720464B
:10456000D4E9021200F00EF808B92368DFE7012051
:1045700038BD0277FCF7E2F9CEE70120704700BFB3
:10458000B71DC104CB071AD51E2310B401E0013BAF
:1045900017D321FA03FC1CF0010FF8D0182A11D808
:1045A000DFE802F016101010101010102410101078
:1045B00010101010211010101010101014000120F5
:1045C00070472AB101205DF8044B7047062BF9D8DB
:1045D000046800206161A36823F018031343A360FB
:1045E0005DF8044B7047072BF2D9EBE70F2BEFD99F
:1045F000E8E700BF88B110B50379044603F0FF0275
:104600003BB100230221012221712361227118464E
:1046100010BD4271FCF7ECF9F3E70120704700BFD1
:10462000002800F0D0802DE9F84F0D46002900F059
:10463000CC8043790746012BD1F80CA000F0D6803E
:10464000164601230222BAF1040F0271437177D09A
:10465000036806F010065A6D696822F480020A4366
:104660005A65EA69012A08D11F20996B2A6AB0406D
:10467000B24021EA00010A439A634FF0070CA9698E
:10468000DA6B01290CFA06FC00F09880022900F090
:104690009F80D5F81480B8FA88F94FEA59192C7A16
:1046A00095F809B0A4F10104B4FA84F4ABF1010B5C
:1046B000BBFA8BFB4FF480714FF4007064094FEA32
:1046C0005B1B240244EA4B2444EA0A04B140D5F8B7
:1046D00000E044EA090441EA0C0144EA0804B0405D
:1046E00022EA010828EA0008BEF1020F28F4404837
:1046F00073D048EA0E084FF4804EB44044EA0804F0
:10470000DC6340F6FE742A69002518680EFA06FE7E
:1047100020EA0E0018601868C021B44020EA0400A6
:104720004FF0010CB240024328461A601A68B140AB
:1047300022EA01021A6087F804C07D71BDE8F88F93
:10474000FFF7CEF83B6804465A6B56B118E0FFF706
:10475000C7F8031B012B3B6802D95A6B11044ED4D6
:104760005A6B1204F3D46A6A1A640DE0FFF7B8F8C2
:10477000031B012B3B6802D95A6B002A3FDB5A6BA3
:10478000002AF3DB6A6A5A6440F2FF3CFF209A6C0D
:10479000A96A06F010060CFA06FC01FA06F422EAF1
:1047A0000C022243E96AD5F80CA09A64DA6CB04096
:1047B000B14022EA00020A43DA644CE74FF00009F4
:1047C000D5F814806BE7012070470120BDE8F88F11
:1047D0004FF00109D5F8148061E703F029FC0C4B78
:1047E000984205D93B6848F4004884E70220A5E7D1
:1047F000084B984288BF48F480483B687BE7032217
:104800003B69104643F008033B613A7196E700BFED
:104810000068890900B4C404F8B1F1B100B50279A7
:104820000346012A5FFA82FE14D14279012A11D08F
:1048300002224FF0000C00681A71426D096822F4E0
:1048400080020A43426583F804E083F805C06046AD
:104850005DF804FB02205DF804FB0120704700BFF7
:10486000704700BF704700BF704700BF704700BF70
:10487000704700BF50B310B590F8243004466BB9B0
:10488000154A164B1648C4E902231649164AE3692D
:10489000C4E90401A261DBB120469847D4E90021B4
:1048A00000200123A06284F82430136823F0004321
:1048B0000B431360506810F0090005D1A062136823
:1048C00043F00103136010BD022010BD01207047AA
:1048D000064A1346E261DFE76148000865480008C0
:1048E00069480008714800086D480008E90A000896
:1048F00038B50446FEF7F4FF002C48D094F8543045
:10490000022B2BD10521236805465A6942F0040287
:104910005A6184F8541005E0FEF7E2FF431B052BB3
:1049200023D823681A699104F6D504254FF4FE4074
:1049300001215A6942F002025A61226D84F85450F2
:104940001206D86084F8541003D50022606F0173FA
:104950009A64002384F84C30184638BD0023202286
:1049600084F84C300120A26538BD0321A36D226D6F
:1049700043F010031006A36584F8541002D50122F9
:10498000636F1A73002384F84C30012038BD012076
:1049900038BD00BF00283ED070B590F859300446AD
:1049A00003F0FF02002B31D0D4E900320226E16986
:1049B0004FF0010C42EA0100002184F859601E68A2
:1049C000A56926F4E02EA2682EF0400E40EA0E0003
:1049D0002A43E5681860586B20F4837020F00100CA
:1049E00002435A631A6C120C12042A431A64626955
:1049F000586B2569520520F4401042EA05520243E3
:104A00005A63E16584F859C0084670BD80F85820A3
:104A1000FCF7CAF8C8E70120704700BF704700BF25
:104A2000704700BFF8B5036804465D681E68E90773
:104A300001D5F20556D4AF0601D5B0043BD4290701
:104A400001D5320521D46B0701D5770574D4A807A9
:104A500001D5B10504D4EA0601D5F30459D4F8BD53
:104A600002270121002023681A6822F400721A60CC
:104A7000226A9F60E36D84F85800E36584F859105A
:104A8000002AE8D020469047E5E7082704210020C7
:104A900023681A6822F400621A60626A9F60E36DFC
:104AA00084F858000B43E36584F85910002ACAD0F3
:104AB00020469047C7E720270421002023681A6872
:104AC00022F400521A60626A9F60E36D84F8580015
:104AD00043F00203E36584F85910002AAFD0204662
:104AE0009047ACE74FF0010C042700211A6822F42C
:104AF00080721A60C26D42EA0C02C265C3F808C037
:104B0000436A80F8597080F85810002B93D098476A
:104B100091E7102601210025236820461A6822F417
:104B200080521A609E60E36D84F85850E36584F803
:104B30005910FFF775FFF8BD236820461A6822F464
:104B400080621A6004229A60FFF768FF7FE700BF67
:104B500090F85820012A53D0034670B40222012451
:104B600001EB410003EBC00083F8584083F8592063
:104B7000826B056BC46A120542EA05422243C56B8B
:104B8000093C012C42EA4552446B1CD942EA0462BA
:104B900081B11C681B49E569806A29401143E161C4
:104BA00020610022012183F8582083F85910104613
:104BB00070BC704718681349446A21409C6A1143CD
:104BC00041628461EDE704F07F452A4361B91868CA
:104BD0000C49446A9D6A21405C6B114324F07F4478
:104BE000416285618462DCE71D680649EE69806A7E
:104BF000314024F07F441143E96128612C62D0E701
:104C000002207047F0FFCC00002800F0D78038B5B4
:104C100090F85C30044603F0FF02002B6FD022684E
:104C2000936923F010039361FEF75AFE054604E0F2
:104C3000FEF756FE431B0A2B59D823689A691107C1
:104C4000F6D49A6942F001029A61FEF749FE0546E0
:104C500004E0FEF745FE401B0A2848D823689A69FD
:104C6000D207F6D59A696068574942F002029A6104
:104C70000860227C012A9A690CBF22F0400242F0AF
:104C800040029A61627C012A9A690CBF42F4804218
:104C900022F480429A61A27C012A9A690CBF22F414
:104CA000805242F480529A619A69A06822F440725C
:104CB00002439A619A69E16822F0A4029A611A6932
:104CC000012922F010021A611ED009B302299A6943
:104CD00076D042F080029A611A69032942F01002EC
:104CE0001A6115D19A6942F020029A6110E0012000
:104CF0000322236E0343236684F85C2038BD80F8CA
:104D00005D20FBF79DFF8AE79A6942F004029A61F1
:104D1000D4E90612013A0139120242EA4162216ADB
:104D2000B0F5407F01F1FF3142EA0102616901F112
:104D3000FF3142EA0142DA610ED1D4E90B02A16AE5
:104D4000013A01381201013942EA00220A43616A3C
:104D5000013942EA0142DA60D3F8C020E06B616BAE
:104D60000243C3F8C020D3F88020184822F4F81278
:104D700042EA01422064C3F88020D3F88020A56B6A
:104D8000134922F0706242EA05626164C3F8802030
:104D9000104A114B01F5F871C4E91223F033C4E94C
:104DA00014134FF4547200213FF09CF800230122A9
:104DB000236684F85C201846A36538BD012070473F
:104DC00042F020029A61A3E700A5004000AC004039
:104DD00070AC0040B0AC004088AD0040064B9A6A11
:104DE000002A01DB002070470449054A99609A6057
:104DF000986AC00F704700BF00200240230167453A
:104E0000AB89EFCD044B9A6A42F000429A62986AED
:104E1000C043C00F704700BF0020024070B5044679
:104E2000FEF75EFD134E0519631C12D1114A136A79
:104E300013F4403FFBD142F2FA010E4A136A0B40D1
:104E400011D1106A10F0010002D001211846116240
:104E500070BD336A13F4403FEDD0FEF741FDA84228
:104E6000E2D3032070BD044C012061681362194332
:104E7000616070BD002002400CB80B20F8B50446FC
:104E80004FF47A70FFF7CAFF00283AD120681F4913
:104E90001F4BA268012818BF0B461A601868E56806
:104EA000801A18BF01205D60D3F804E021697545C0
:104EB00018BF01209960D3F808C06269614518BF26
:104EC0000120DA60DF68A669BA4218BF01201E61BE
:104ED000D3F810C0E569664518BF01205D615F69C0
:104EE000216ABD4218BF01209961626A9C69DA613A
:104EF000A14218BF0120DB699A4218BF0120BFF30D
:104F00006F8F0022034B1A70F8BD00BFF0200240E3
:104F1000D02002400CB80B202DE9F04F0C6883B074
:104F20000090002C00F0EF804FF0000C774B024611
:104F300003EA902301934FF0010B63468E4669E02C
:104F4000DEF8040020F01005022D00F0A2800321FD
:104F5000E04601FA0CF9194616686FEA090726EAD5
:104F6000090600F0030909FA0CF949EA0609C2F832
:104F70000090013D012D40F2B180032844D0D1685A
:104F8000DEF80850394005FA08F50D43C700D56032
:104F90003AD50F2623F0030505F18C4503F00301F4
:104FA00005F50835C9002F6E06FA01F8019E27EABB
:104FB000080706FA01F1394329666FEA0A055449E0
:104FC000C6020968524E54BF29404AEA01013160C5
:104FD000716887024E4E54BF29404AEA0101716050
:104FE000D6F8841086034A4E54BF29404AEA01018C
:104FF000C6F88410D6F88010C003454854BF294035
:105000004AEA0101C0F88010013334FA03F10CF1CF
:10501000020C78D00BFA03F111EA040AF4D00098DC
:105020003C4DA8428CD106463B4F3568DEF8040063
:1050300007EBC30225EA0105516800F001029A401E
:105040002A4332600F2601F00705AD0006FA05F984
:105050000B2606FA05F5032657F83320CF0802EB96
:105060008707D7F8208028EA090845EA08053D6245
:1050700015684FEA410806FA08F725EA07090225EC
:1050800005FA08F545EA09051560FF4320F010050B
:105090006FE70F260099DEF810704FEAD30801EB96
:1050A000880803F00701890007F00F078F4006FA10
:1050B00001F10326D8F8209005FA0CF529EA010938
:1050C00047EA0907C8F82070116806FA0CF721EAC8
:1050D00007010D43FF43E04619461560956805EA50
:1050E0000709DEF80C5005FA08F545EA0905956050
:1050F00055680BFA01F925EA090905098D4045EAC9
:105100000905556039E703B0BDE8F08F7F7F2F00B8
:105110000020024600000246E04004080AB1816116
:1051200070478162704700BF704700BF094B10B5E0
:10513000DA680446024209D1064B1A69144200D1CA
:1051400010BD20461C61FCF7C3FB10BDD860FFF703
:10515000EBFFF1E70020024698B138B545790446E7
:105160004DB10379012B0AD04FF480720023A28045
:105170001846A36038BDFBF739FF2571F4E702201C
:1051800038BD0120704700BF704700BF0268D2F8E9
:10519000F810C90700D47047D2F8F81008B521F00C
:1051A0000101C2F8F8100368D3F84811FFF7ECFFCB
:1051B00008BD00BFFEE700BF08B5FFF7FBFF08BD55
:1051C00050B310B590F83530044603F0FF02F3B148
:1051D00000234FF0010C0222104984F83520E361CE
:1051E000236284F82DC06362E386A3630A682068A3
:1051F00022F0300202430A600A68184622F4005284
:105200000A6084F835C084F82C30E36310BD80F860
:105210003420FBF733FFDBE70120704700040C422A
:105220002DE9F0474FF0200805460E461746036863
:10523000986910F0020940F0A0809C6914F01004F5
:1052400068D010223C46CA46DA61711C9A6963D163
:10525000900600F19580BAF1000F04D19C69A10677
:10526000FCD5C3F81C80012149F004049A69D005DB
:1052700030D54FF48071560544F00104D96104D54E
:105280004FF4806144F00804D961910504D54FF4CE
:10529000007244F00204DA619A69900744BF002268
:1052A0009A629A69D10703D49A6942F001029A611D
:1052B0000021202601205A68344F3A405A606B6C16
:1052C00085F8401023436B6485F8416085F84210EF
:1052D000BDE8F0875005D3D49205D8D40029DBD19E
:1052E000721CA5D0FEF7FCFAC01BB0422B6801D897
:1052F000002E9DD19A6912F0020299D120216B6C87
:1053000001200B436B6485F8402085F8411085F837
:105310004220DDE72146A9E7920631D4BAF1000F19
:10532000A1D1FEF7DDFA001B86422B6801D3002EC7
:105330008BD1586895F842209969D2B209040DD5ED
:1053400041040BD4202A09D05A6842F480425A60A2
:10535000FEF7C6FA2B68044600E02B689A699006AF
:105360003FF573AFFEF7BCFA001B1928F5D94FF0D3
:1053700020094FF0010A2B6867E70020BDE8F0879D
:10538000BAF1000F3FF46DAF6DE700BF00E800FE1B
:105390002DE9F047904602680F4691698C0664D467
:1053A000064613464FF01009946914F0100472D0A9
:1053B000002513464446AA46C2F81C90791C9A69F7
:1053C0006BD1900600F19980BAF1000F04D19C696D
:1053D000A106FCD52022DA61012145F004049A6976
:1053E000D00530D54FF48071550544F00104D961E2
:1053F00004D54FF4806144F00804D961910504D5C7
:105400004FF4007244F00204DA619A69950744BFD0
:1054100000229A629A69D00703D49A6942F0010285
:105420009A61002120255A68364F01203A405A607F
:10543000736C86F840102343736486F8415086F8F5
:105440004210BDE8F0875005D3D49205D8D4002986
:10545000DBD1FEF745FAA0EB0800B84208D83FB10F
:1054600033681A46916989069ED50020BDE8F08709
:1054700032689169134611F02001F3D12022736C38
:1054800086F840101343736486F8412086F8421072
:105490000120BDE8F0872146A1E792062DD4BAF19C
:1054A000000F99D1FEF71CFA001B8742336801D325
:1054B000002F83D1586896F842209969D2B2090426
:1054C0000DD541040BD4202A09D05A6842F48042F9
:1054D0005A60FEF705FA3368044600E033689A69BB
:1054E00090063FF56BAFFEF7FBF9001B1928F5D9C5
:1054F00020254FF0010A336860E7BAF1000F3FF44E
:1055000069AF69E700E800FE002855D010B590F8B3
:105510004130044603F0FF02002B48D0D4E90032AA
:10552000242184F84110196822F0706221F00101F1
:10553000E06819601A619A68012822F400429A60B2
:10554000A26809D042F4044202289A6007D15A683E
:1055500042F400625A6006E042F400429A605A68DF
:1055600022F400625A6000214FF0200C5A6842F089
:10557000007242F400425A60DA6822F40042DA60B3
:10558000D4E904200243A06942EA0022DA60D4E9A7
:10559000072002431A601A68084642F001021A60A6
:1055A000616484F841C0216384F8421010BD80F822
:1055B0004020FBF71DFEB1E7012070472DE9F84FB1
:1055C0001C4690F84130BDF82C90202B0C9D40F0EB
:1055D000C7800A9B8346002B00F0BB80B9F1000F07
:1055E00000F0B78090F84030012B00F0B980012323
:1055F00080F8403090460F46FEF772F9DBF8003035
:1056000006469A6912040DD5FEF76AF9801B19281F
:10561000DBF8003003D99A69100400F1A4809A697C
:105620001104F1D422210A9A8BF84110CBF82420DE
:10563000402100228BF84210CBF84420ABF82A908E
:105640009649CBF834205A68C7F309070A40E1B2FB
:1056500042EA01423A4342F400525A602946324635
:105660005846FFF7DDFD002840F0C180012C40F0D6
:10567000B180DBF800405FFA88F3A3626A1C40F057
:105680008180A3695B06FCD5BBF82A309BB2FF2B57
:1056900000F29380BBF82A3080499BB2ABF82830E7
:1056A000DAB263680B403B4343EA024343F00073C2
:1056B00043F4105363604FF0FF0ADFF8E881DFF82E
:1056C000E891691C27D1A3695A07FCD5626ADBF807
:1056D00024301A70BBF82A30DBF82420013B9BB23F
:1056E000ABF82A300132BBF82830CBF82420BBF8C5
:1056F0002A20013B9BB292B2ABF828300AB1002BB2
:105700007ED0BBF82A309BB2002B00F0B080691C21
:10571000DBF80040D7D0A3695B07D7D4FEF7E0F8E9
:10572000801B8542DBF8004001D3002DC9D1A3695D
:1057300013F00403C5D12021DBF8442001200A43E3
:10574000CBF844208BF840308BF841108BF8423076
:1057500004E04FF400730120CBF84430BDE8F88F2B
:105760000220BDE8F88F20210022DBF84430012020
:105770000B43CBF844308BF840208BF841108BF86A
:105780004220EBE7A36958063FF57EAFFEF7A8F885
:10579000801B8542DBF800402ED2A36913F0400342
:1057A0007FF46CAF2021DBF844200A43CBF844207F
:1057B0008BF841108BF8423019E0FF23374AABF8E1
:1057C0002830636813403B4343F0FF7343F4923344
:1057D000636070E7DBF800304FEA18229A622946CE
:1057E00032465846FFF71CFD00283FF442AF002325
:1057F00001208BF84030B1E7002D7FF43FAFCCE7BC
:10580000DBF80020681C11D193691906FCD5BBF8A0
:105810002A309BB2FF2B1AD95368ABF828A003EAB1
:1058200008033B4343EA090353606AE793691B0695
:10583000EDD4FEF755F8801B8542DBF8002001D33C
:10584000002DDFD1936913F08003DBD173E7BBF840
:105850002A309BB2ABF82830D9B2536803EA080368
:105860003B4343EA014343F00073536049E7324648
:1058700029465846FFF78CFD70B92021DBF800302F
:10588000074CD9615A6822405A608BF841108BF856
:1058900040008BF8420061E701205FE7009800FCC0
:1058A00000E800FE009C00FC0000FF0190F8412091
:1058B000202A23D15FFA82FC90F840200346012A77
:1058C0001CD0242000B54FF0000E1A6883F8410068
:1058D000106820F001001060106820F48050106003
:1058E0001068014311601168704641F001011160B8
:1058F00083F841C083F840E05DF804FB0220704764
:1059000090F84120202A22D100B55FFA82FE90F85B
:1059100040200346012A1CD024204FF0000C1A68B6
:1059200083F84100106820F001001060106820F436
:10593000706040EA012111601168604641F0010188
:10594000116083F841E083F840C05DF804FB022059
:10595000704702205DF804FB08490B6813F001034F
:105960000AD1024610B40C68184624F0040313430D
:105970005DF8044B0B607047012070470004034042
:10598000034A0020136843F001031360704700BF0F
:1059900000040340002800F09780F8B590F84A30E2
:1059A000044603F0FF02002B00F0868002214FF432
:1059B0007A754FF48070454B454A1B6884F84A104D
:1059C000A2FB032322689B0B116905FB03F341F043
:1059D00001011161616B506091621946013959D022
:1059E0001068C005FAD51020216A50609161013B12
:1059F00050D01168CD06FAD5D36A9F0706D4D36A72
:105A00009E0303D4136923F0010313616568D06812
:105A1000012DA76A41D0B7F5000F3ED04FF6FF73B6
:105A20006169666A9942A36818BF20F4604043EA3E
:105A3000050343EA0603274E18BF20F0C0003B438E
:105A40000640334365BBE069256928430343B7F546
:105A5000000F27D04FF6FF70814204D0A0690143A8
:105A6000E06901430B431C49D3608A421FD01B4BA2
:105A70009A421CD01A4B9A4223D003F580639A4273
:105A80001FD0012384F84B3084F84C3084F84A301E
:105A90000020F8BD03201368F8BD20F01E00BDE70C
:105AA000012DD4D1D4E9030528430343D2E7D4E937
:105AB0000B310B435362E4E780F84920FBF7ACFC61
:105AC00074E7E36A5362DCE70120704700B80B20FB
:105AD0005917B7D1FEF139FF004400460094004049
